{
  "contractName": "SecureStorage",
  "abi": [
    {
      "inputs": [],
      "stateMutability": "nonpayable",
      "type": "constructor"
    },
    {
      "anonymous": false,
      "inputs": [
        {
          "indexed": true,
          "internalType": "address",
          "name": "user",
          "type": "address"
        },
        {
          "indexed": false,
          "internalType": "uint256",
          "name": "id",
          "type": "uint256"
        }
      ],
      "name": "FileDeleted",
      "type": "event"
    },
    {
      "anonymous": false,
      "inputs": [
        {
          "indexed": true,
          "internalType": "address",
          "name": "user",
          "type": "address"
        },
        {
          "indexed": false,
          "internalType": "uint256",
          "name": "id",
          "type": "uint256"
        },
        {
          "indexed": false,
          "internalType": "string",
          "name": "ipfsHash",
          "type": "string"
        },
        {
          "indexed": false,
          "internalType": "string",
          "name": "fileName",
          "type": "string"
        }
      ],
      "name": "FileStored",
      "type": "event"
    },
    {
      "anonymous": false,
      "inputs": [
        {
          "indexed": true,
          "internalType": "address",
          "name": "previousOwner",
          "type": "address"
        },
        {
          "indexed": true,
          "internalType": "address",
          "name": "newOwner",
          "type": "address"
        }
      ],
      "name": "OwnershipTransferred",
      "type": "event"
    },
    {
      "anonymous": false,
      "inputs": [
        {
          "indexed": false,
          "internalType": "address",
          "name": "account",
          "type": "address"
        }
      ],
      "name": "Paused",
      "type": "event"
    },
    {
      "anonymous": false,
      "inputs": [
        {
          "indexed": false,
          "internalType": "address",
          "name": "account",
          "type": "address"
        }
      ],
      "name": "Unpaused",
      "type": "event"
    },
    {
      "anonymous": false,
      "inputs": [
        {
          "indexed": true,
          "internalType": "address",
          "name": "user",
          "type": "address"
        },
        {
          "indexed": false,
          "internalType": "bool",
          "name": "allowed",
          "type": "bool"
        }
      ],
      "name": "UserStatusChanged",
      "type": "event"
    },
    {
      "inputs": [],
      "name": "owner",
      "outputs": [
        {
          "internalType": "address",
          "name": "",
          "type": "address"
        }
      ],
      "stateMutability": "view",
      "type": "function",
      "constant": true
    },
    {
      "inputs": [],
      "name": "paused",
      "outputs": [
        {
          "internalType": "bool",
          "name": "",
          "type": "bool"
        }
      ],
      "stateMutability": "view",
      "type": "function",
      "constant": true
    },
    {
      "inputs": [],
      "name": "renounceOwnership",
      "outputs": [],
      "stateMutability": "nonpayable",
      "type": "function"
    },
    {
      "inputs": [
        {
          "internalType": "address",
          "name": "newOwner",
          "type": "address"
        }
      ],
      "name": "transferOwnership",
      "outputs": [],
      "stateMutability": "nonpayable",
      "type": "function"
    },
    {
      "inputs": [
        {
          "internalType": "string",
          "name": "_ipfsHash",
          "type": "string"
        },
        {
          "internalType": "string",
          "name": "_fileName",
          "type": "string"
        },
        {
          "internalType": "string",
          "name": "_encryptedKey",
          "type": "string"
        },
        {
          "internalType": "bool",
          "name": "_isPublic",
          "type": "bool"
        }
      ],
      "name": "storeFile",
      "outputs": [],
      "stateMutability": "nonpayable",
      "type": "function"
    },
    {
      "inputs": [
        {
          "internalType": "uint256",
          "name": "_id",
          "type": "uint256"
        }
      ],
      "name": "getFile",
      "outputs": [
        {
          "internalType": "string",
          "name": "",
          "type": "string"
        },
        {
          "internalType": "string",
          "name": "",
          "type": "string"
        },
        {
          "internalType": "string",
          "name": "",
          "type": "string"
        },
        {
          "internalType": "uint256",
          "name": "",
          "type": "uint256"
        },
        {
          "internalType": "bool",
          "name": "",
          "type": "bool"
        }
      ],
      "stateMutability": "view",
      "type": "function",
      "constant": true
    },
    {
      "inputs": [
        {
          "internalType": "address",
          "name": "_user",
          "type": "address"
        },
        {
          "internalType": "uint256",
          "name": "_id",
          "type": "uint256"
        }
      ],
      "name": "getPublicFile",
      "outputs": [
        {
          "internalType": "string",
          "name": "",
          "type": "string"
        },
        {
          "internalType": "string",
          "name": "",
          "type": "string"
        }
      ],
      "stateMutability": "view",
      "type": "function",
      "constant": true
    },
    {
      "inputs": [
        {
          "internalType": "uint256",
          "name": "_id",
          "type": "uint256"
        }
      ],
      "name": "getFileKey",
      "outputs": [
        {
          "internalType": "string",
          "name": "",
          "type": "string"
        }
      ],
      "stateMutability": "view",
      "type": "function",
      "constant": true
    },
    {
      "inputs": [],
      "name": "getFileCount",
      "outputs": [
        {
          "internalType": "uint256",
          "name": "",
          "type": "uint256"
        }
      ],
      "stateMutability": "view",
      "type": "function",
      "constant": true
    },
    {
      "inputs": [
        {
          "internalType": "uint256",
          "name": "_id",
          "type": "uint256"
        }
      ],
      "name": "deleteFile",
      "outputs": [],
      "stateMutability": "nonpayable",
      "type": "function"
    },
    {
      "inputs": [
        {
          "internalType": "address",
          "name": "_user",
          "type": "address"
        }
      ],
      "name": "addAllowedUser",
      "outputs": [],
      "stateMutability": "nonpayable",
      "type": "function"
    },
    {
      "inputs": [
        {
          "internalType": "address",
          "name": "_user",
          "type": "address"
        }
      ],
      "name": "removeAllowedUser",
      "outputs": [],
      "stateMutability": "nonpayable",
      "type": "function"
    },
    {
      "inputs": [],
      "name": "pause",
      "outputs": [],
      "stateMutability": "nonpayable",
      "type": "function"
    },
    {
      "inputs": [],
      "name": "unpause",
      "outputs": [],
      "stateMutability": "nonpayable",
      "type": "function"
    }
  ],
  "bytecode": "0x608060405234801561000f575f80fd5b5061002c61002161009f60201b60201c565b6100a660201b60201c565b5f8060146101000a81548160ff021916908315150217905550600160035f3373ffffffffffffffffffffffffffffffffffffffff1673ffffffffffffffffffffffffffffffffffffffff1681526020019081526020015f205f6101000a81548160ff021916908315150217905550610167565b5f33905090565b5f805f9054906101000a900473ffffffffffffffffffffffffffffffffffffffff169050815f806101000a81548173ffffffffffffffffffffffffffffffffffffffff021916908373ffffffffffffffffffffffffffffffffffffffff1602179055508173ffffffffffffffffffffffffffffffffffffffff168173ffffffffffffffffffffffffffffffffffffffff167f8be0079c531659141344cd1fd0a4f28419497f9722a3daafe3b4186f6b6457e060405160405180910390a35050565b611eda806101745f395ff3fe608060405234801561000f575f80fd5b50600436106100e8575f3560e01c80638da5cb5b1161008a578063c5b4200611610064578063c5b4200614610215578063c64472b614610231578063cafd89041461024d578063f2fde38b14610269576100e8565b80638da5cb5b146101a8578063b290bcb3146101c6578063bab50cc9146101f7576100e8565b806349185557116100c657806349185557146101465780635c975abb14610176578063715018a6146101945780638456cb591461019e576100e8565b806321b384ed146100ec5780632bfda313146101085780633f4ba83a1461013c575b5f80fd5b61010660048036038101906101019190611389565b610285565b005b610122600480360381019061011d91906113e7565b610334565b6040516101339594939291906114c5565b60405180910390f35b610144610613565b005b610160600480360381019061015b91906113e7565b610625565b60405161016d919061152b565b60405180910390f35b61017e610783565b60405161018b919061154b565b60405180910390f35b61019c610798565b005b6101a66107ab565b005b6101b06107bd565b6040516101bd9190611573565b60405180910390f35b6101e060048036038101906101db919061158c565b6107e4565b6040516101ee9291906115ca565b60405180910390f35b6101ff610aec565b60405161020c91906115ff565b60405180910390f35b61022f600480360381019061022a91906113e7565b610b30565b005b61024b6004803603810190610246919061176e565b610c9d565b005b61026760048036038101906102629190611389565b610efb565b005b610283600480360381019061027e9190611389565b610fa8565b005b61028d61102a565b600160035f8373ffffffffffffffffffffffffffffffffffffffff1673ffffffffffffffffffffffffffffffffffffffff1681526020019081526020015f205f6101000a81548160ff0219169083151502179055508073ffffffffffffffffffffffffffffffffffffffff167fac6a98145b54adc0bf4a88140a58aa33ca5ddf35ac39fc3998947220aa1b230d6001604051610329919061154b565b60405180910390a250565b60608060605f8060025f3373ffffffffffffffffffffffffffffffffffffffff1673ffffffffffffffffffffffffffffffffffffffff1681526020019081526020015f205486106103ba576040517f08c379a00000000000000000000000000000000000000000000000000000000081526004016103b190611870565b60405180910390fd5b5f60015f3373ffffffffffffffffffffffffffffffffffffffff1673ffffffffffffffffffffffffffffffffffffffff1681526020019081526020015f205f8881526020019081526020015f206040518060a00160405290815f82018054610421906118bb565b80601f016020809104026020016040519081016040528092919081815260200182805461044d906118bb565b80156104985780601f1061046f57610100808354040283529160200191610498565b820191905f5260205f20905b81548152906001019060200180831161047b57829003601f168201915b505050505081526020016001820180546104b1906118bb565b80601f01602080910402602001604051908101604052809291908181526020018280546104dd906118bb565b80156105285780601f106104ff57610100808354040283529160200191610528565b820191905f5260205f20905b81548152906001019060200180831161050b57829003601f168201915b50505050508152602001600282018054610541906118bb565b80601f016020809104026020016040519081016040528092919081815260200182805461056d906118bb565b80156105b85780601f1061058f576101008083540402835291602001916105b8565b820191905f5260205f20905b81548152906001019060200180831161059b57829003601f168201915b5050505050815260200160038201548152602001600482015f9054906101000a900460ff1615151515815250509050805f01518160200151826040015183606001518460800151955095509550955095505091939590929450565b61061b61102a565b6106236110a8565b565b606060025f3373ffffffffffffffffffffffffffffffffffffffff1673ffffffffffffffffffffffffffffffffffffffff1681526020019081526020015f205482106106a6576040517f08c379a000000000000000000000000000000000000000000000000000000000815260040161069d90611870565b60405180910390fd5b60015f3373ffffffffffffffffffffffffffffffffffffffff1673ffffffffffffffffffffffffffffffffffffffff1681526020019081526020015f205f8381526020019081526020015f206002018054610700906118bb565b80601f016020809104026020016040519081016040528092919081815260200182805461072c906118bb565b80156107775780601f1061074e57610100808354040283529160200191610777565b820191905f5260205f20905b81548152906001019060200180831161075a57829003601f168201915b50505050509050919050565b5f8060149054906101000a900460ff16905090565b6107a061102a565b6107a95f611109565b565b6107b361102a565b6107bb6111ca565b565b5f805f9054906101000a900473ffffffffffffffffffffffffffffffffffffffff16905090565b60608060025f8573ffffffffffffffffffffffffffffffffffffffff1673ffffffffffffffffffffffffffffffffffffffff1681526020019081526020015f20548310610866576040517f08c379a000000000000000000000000000000000000000000000000000000000815260040161085d90611870565b60405180910390fd5b5f60015f8673ffffffffffffffffffffffffffffffffffffffff1673ffffffffffffffffffffffffffffffffffffffff1681526020019081526020015f205f8581526020019081526020015f206040518060a00160405290815f820180546108cd906118bb565b80601f01602080910402602001604051908101604052809291908181526020018280546108f9906118bb565b80156109445780601f1061091b57610100808354040283529160200191610944565b820191905f5260205f20905b81548152906001019060200180831161092757829003601f168201915b5050505050815260200160018201805461095d906118bb565b80601f0160208091040260200160405190810160405280929190818152602001828054610989906118bb565b80156109d45780601f106109ab576101008083540402835291602001916109d4565b820191905f5260205f20905b8154815290600101906020018083116109b757829003601f168201915b505050505081526020016002820180546109ed906118bb565b80601f0160208091040260200160405190810160405280929190818152602001828054610a19906118bb565b8015610a645780601f10610a3b57610100808354040283529160200191610a64565b820191905f5260205f20905b815481529060010190602001808311610a4757829003601f168201915b5050505050815260200160038201548152602001600482015f9054906101000a900460ff16151515158152505090508060800151610ad7576040517f08c379a0000000000000000000000000000000000000000000000000000000008152600401610ace90611935565b60405180910390fd5b805f0151816020015192509250509250929050565b5f60025f3373ffffffffffffffffffffffffffffffffffffffff1673ffffffffffffffffffffffffffffffffffffffff1681526020019081526020015f2054905090565b610b3861122c565b60025f3373ffffffffffffffffffffffffffffffffffffffff1673ffffffffffffffffffffffffffffffffffffffff1681526020019081526020015f20548110610bb7576040517f08c379a0000000000000000000000000000000000000000000000000000000008152600401610bae90611870565b60405180910390fd5b60015f3373ffffffffffffffffffffffffffffffffffffffff1673ffffffffffffffffffffffffffffffffffffffff1681526020019081526020015f205f8281526020019081526020015f205f8082015f610c1291906112c6565b600182015f610c2191906112c6565b600282015f610c3091906112c6565b600382015f9055600482015f6101000a81549060ff021916905550503373ffffffffffffffffffffffffffffffffffffffff167fd9f8d449398cb5e4cbe5d3c737755fc75cc6eca4c95fc74b773af3c8953d59ca82604051610c9291906115ff565b60405180910390a250565b610ca561122c565b60035f3373ffffffffffffffffffffffffffffffffffffffff1673ffffffffffffffffffffffffffffffffffffffff1681526020019081526020015f205f9054906101000a900460ff16610d2e576040517f08c379a0000000000000000000000000000000000000000000000000000000008152600401610d259061199d565b60405180910390fd5b5f60025f3373ffffffffffffffffffffffffffffffffffffffff1673ffffffffffffffffffffffffffffffffffffffff1681526020019081526020015f205490506040518060a0016040528086815260200185815260200184815260200142815260200183151581525060015f3373ffffffffffffffffffffffffffffffffffffffff1673ffffffffffffffffffffffffffffffffffffffff1681526020019081526020015f205f8381526020019081526020015f205f820151815f019081610df79190611b58565b506020820151816001019081610e0d9190611b58565b506040820151816002019081610e239190611b58565b50606082015181600301556080820151816004015f6101000a81548160ff02191690831515021790555090505060025f3373ffffffffffffffffffffffffffffffffffffffff1673ffffffffffffffffffffffffffffffffffffffff1681526020019081526020015f205f815480929190610e9d90611c54565b91905055503373ffffffffffffffffffffffffffffffffffffffff167f8c01ad7e7191637ecd162463666e690625fe0b7eb3958eacacfa0299bc137714828787604051610eec93929190611c9b565b60405180910390a25050505050565b610f0361102a565b5f60035f8373ffffffffffffffffffffffffffffffffffffffff1673ffffffffffffffffffffffffffffffffffffffff1681526020019081526020015f205f6101000a81548160ff0219169083151502179055508073ffffffffffffffffffffffffffffffffffffffff167fac6a98145b54adc0bf4a88140a58aa33ca5ddf35ac39fc3998947220aa1b230d5f604051610f9d919061154b565b60405180910390a250565b610fb061102a565b5f73ffffffffffffffffffffffffffffffffffffffff168173ffffffffffffffffffffffffffffffffffffffff160361101e576040517f08c379a000000000000000000000000000000000000000000000000000000000815260040161101590611d4e565b60405180910390fd5b61102781611109565b50565b611032611276565b73ffffffffffffffffffffffffffffffffffffffff166110506107bd565b73ffffffffffffffffffffffffffffffffffffffff16146110a6576040517f08c379a000000000000000000000000000000000000000000000000000000000815260040161109d90611db6565b60405180910390fd5b565b6110b061127d565b5f8060146101000a81548160ff0219169083151502179055507f5db9ee0a495bf2e6ff9c91a7834c1ba4fdd244a5e8aa4e537bd38aeae4b073aa6110f2611276565b6040516110ff9190611573565b60405180910390a1565b5f805f9054906101000a900473ffffffffffffffffffffffffffffffffffffffff169050815f806101000a81548173ffffffffffffffffffffffffffffffffffffffff021916908373ffffffffffffffffffffffffffffffffffffffff1602179055508173ffffffffffffffffffffffffffffffffffffffff168173ffffffffffffffffffffffffffffffffffffffff167f8be0079c531659141344cd1fd0a4f28419497f9722a3daafe3b4186f6b6457e060405160405180910390a35050565b6111d261122c565b60015f60146101000a81548160ff0219169083151502179055507f62e78cea01bee320cd4e420270b5ea74000d11b0c9f74754ebdbfc544b05a258611215611276565b6040516112229190611573565b60405180910390a1565b611234610783565b15611274576040517f08c379a000000000000000000000000000000000000000000000000000000000815260040161126b90611e1e565b60405180910390fd5b565b5f33905090565b611285610783565b6112c4576040517f08c379a00000000000000000000000000000000000000000000000000000000081526004016112bb90611e86565b60405180910390fd5b565b5080546112d2906118bb565b5f825580601f106112e35750611300565b601f0160209004905f5260205f20908101906112ff9190611303565b5b50565b5b8082111561131a575f815f905550600101611304565b5090565b5f604051905090565b5f80fd5b5f80fd5b5f73ffffffffffffffffffffffffffffffffffffffff82169050919050565b5f6113588261132f565b9050919050565b6113688161134e565b8114611372575f80fd5b50565b5f813590506113838161135f565b92915050565b5f6020828403121561139e5761139d611327565b5b5f6113ab84828501611375565b91505092915050565b5f819050919050565b6113c6816113b4565b81146113d0575f80fd5b50565b5f813590506113e1816113bd565b92915050565b5f602082840312156113fc576113fb611327565b5b5f611409848285016113d3565b91505092915050565b5f81519050919050565b5f82825260208201905092915050565b5f5b8381101561144957808201518184015260208101905061142e565b5f8484015250505050565b5f601f19601f8301169050919050565b5f61146e82611412565b611478818561141c565b935061148881856020860161142c565b61149181611454565b840191505092915050565b6114a5816113b4565b82525050565b5f8115159050919050565b6114bf816114ab565b82525050565b5f60a0820190508181035f8301526114dd8188611464565b905081810360208301526114f18187611464565b905081810360408301526115058186611464565b9050611514606083018561149c565b61152160808301846114b6565b9695505050505050565b5f6020820190508181035f8301526115438184611464565b905092915050565b5f60208201905061155e5f8301846114b6565b92915050565b61156d8161134e565b82525050565b5f6020820190506115865f830184611564565b92915050565b5f80604083850312156115a2576115a1611327565b5b5f6115af85828601611375565b92505060206115c0858286016113d3565b9150509250929050565b5f6040820190508181035f8301526115e28185611464565b905081810360208301526115f68184611464565b90509392505050565b5f6020820190506116125f83018461149c565b92915050565b5f80fd5b5f80fd5b7f4e487b71000000000000000000000000000000000000000000000000000000005f52604160045260245ffd5b61165682611454565b810181811067ffffffffffffffff8211171561167557611674611620565b5b80604052505050565b5f61168761131e565b9050611693828261164d565b919050565b5f67ffffffffffffffff8211156116b2576116b1611620565b5b6116bb82611454565b9050602081019050919050565b828183375f83830152505050565b5f6116e86116e384611698565b61167e565b9050828152602081018484840111156117045761170361161c565b5b61170f8482856116c8565b509392505050565b5f82601f83011261172b5761172a611618565b5b813561173b8482602086016116d6565b91505092915050565b61174d816114ab565b8114611757575f80fd5b50565b5f8135905061176881611744565b92915050565b5f805f806080858703121561178657611785611327565b5b5f85013567ffffffffffffffff8111156117a3576117a261132b565b5b6117af87828801611717565b945050602085013567ffffffffffffffff8111156117d0576117cf61132b565b5b6117dc87828801611717565b935050604085013567ffffffffffffffff8111156117fd576117fc61132b565b5b61180987828801611717565b925050606061181a8782880161175a565b91505092959194509250565b7f494420646f6573206e6f742065786973740000000000000000000000000000005f82015250565b5f61185a60118361141c565b915061186582611826565b602082019050919050565b5f6020820190508181035f8301526118878161184e565b9050919050565b7f4e487b71000000000000000000000000000000000000000000000000000000005f52602260045260245ffd5b5f60028204905060018216806118d257607f821691505b6020821081036118e5576118e461188e565b5b50919050565b7f46696c65206973206e6f74207075626c696300000000000000000000000000005f82015250565b5f61191f60128361141c565b915061192a826118eb565b602082019050919050565b5f6020820190508181035f83015261194c81611913565b9050919050565b7f4e6f7420617574686f72697a65640000000000000000000000000000000000005f82015250565b5f611987600e8361141c565b915061199282611953565b602082019050919050565b5f6020820190508181035f8301526119b48161197b565b9050919050565b5f819050815f5260205f209050919050565b5f6020601f8301049050919050565b5f82821b905092915050565b5f60088302611a177fffffffffffffffffffffffffffffffffffffffffffffffffffffffffffffffff826119dc565b611a2186836119dc565b95508019841693508086168417925050509392505050565b5f819050919050565b5f611a5c611a57611a52846113b4565b611a39565b6113b4565b9050919050565b5f819050919050565b611a7583611a42565b611a89611a8182611a63565b8484546119e8565b825550505050565b5f90565b611a9d611a91565b611aa8818484611a6c565b505050565b5b81811015611acb57611ac05f82611a95565b600181019050611aae565b5050565b601f821115611b1057611ae1816119bb565b611aea846119cd565b81016020851015611af9578190505b611b0d611b05856119cd565b830182611aad565b50505b505050565b5f82821c905092915050565b5f611b305f1984600802611b15565b1980831691505092915050565b5f611b488383611b21565b9150826002028217905092915050565b611b6182611412565b67ffffffffffffffff811115611b7a57611b79611620565b5b611b8482546118bb565b611b8f828285611acf565b5f60209050601f831160018114611bc0575f8415611bae578287015190505b611bb88582611b3d565b865550611c1f565b601f198416611bce866119bb565b5f5b82811015611bf557848901518255600182019150602085019450602081019050611bd0565b86831015611c125784890151611c0e601f891682611b21565b8355505b6001600288020188555050505b505050505050565b7f4e487b71000000000000000000000000000000000000000000000000000000005f52601160045260245ffd5b5f611c5e826113b4565b91507fffffffffffffffffffffffffffffffffffffffffffffffffffffffffffffffff8203611c9057611c8f611c27565b5b600182019050919050565b5f606082019050611cae5f83018661149c565b8181036020830152611cc08185611464565b90508181036040830152611cd48184611464565b9050949350505050565b7f4f776e61626c653a206e6577206f776e657220697320746865207a65726f20615f8201527f6464726573730000000000000000000000000000000000000000000000000000602082015250565b5f611d3860268361141c565b9150611d4382611cde565b604082019050919050565b5f6020820190508181035f830152611d6581611d2c565b9050919050565b7f4f776e61626c653a2063616c6c6572206973206e6f7420746865206f776e65725f82015250565b5f611da060208361141c565b9150611dab82611d6c565b602082019050919050565b5f6020820190508181035f830152611dcd81611d94565b9050919050565b7f5061757361626c653a20706175736564000000000000000000000000000000005f82015250565b5f611e0860108361141c565b9150611e1382611dd4565b602082019050919050565b5f6020820190508181035f830152611e3581611dfc565b9050919050565b7f5061757361626c653a206e6f74207061757365640000000000000000000000005f82015250565b5f611e7060148361141c565b9150611e7b82611e3c565b602082019050919050565b5f6020820190508181035f830152611e9d81611e64565b905091905056fea2646970667358221220b3765459bbbb3aa93b30521c1c533939d7e43bbabca4731d673a55eb85f01c0c64736f6c63430008140033",
  "immutableReferences": {},
  "source": "//SPDX-License-Identifier: MIT\npragma solidity ^0.8.0;\nimport \"@openzeppelin/contracts/access/Ownable.sol\";\nimport \"@openzeppelin/contracts/security/Pausable.sol\";\n\ncontract SecureStorage is Ownable, Pausable {\n    struct File {\n        string ipfsHash;    // IPFS hash of encrypted file\n        string fileName;    // Name of the file\n        string encryptedKey;// Encrypted key (stored as string)\n        uint256 timestamp;  // When it was stored\n        bool isPublic;      // Publicly viewable?\n    }\n    mapping(address => mapping(uint256 => File)) private files;\n    mapping(address => uint256) private fileCount;\n    mapping(address => bool) private allowedUsers;\n\n    event FileStored(address indexed user, uint256 id, string ipfsHash, string fileName);\n    event FileDeleted(address indexed user, uint256 id);\n    event UserStatusChanged(address indexed user, bool allowed);\n\n    constructor() {\n        allowedUsers[msg.sender] = true;\n    }\n\n    modifier onlyAllowed() {\n        require(allowedUsers[msg.sender], \"Not authorized\");\n        _;\n    }\n\n    function storeFile(\n        string memory _ipfsHash, \n        string memory _fileName, \n        string memory _encryptedKey, \n        bool _isPublic\n    ) public whenNotPaused onlyAllowed {\n        uint256 id = fileCount[msg.sender];\n        files[msg.sender][id] = File(_ipfsHash, _fileName, _encryptedKey, block.timestamp, _isPublic);\n        fileCount[msg.sender]++;\n        emit FileStored(msg.sender, id, _ipfsHash, _fileName);\n    }\n\n    function getFile(uint256 _id) \n        public view \n        returns (string memory, string memory, string memory, uint256, bool) {\n        require(_id < fileCount[msg.sender], \"ID does not exist\");\n        File memory file = files[msg.sender][_id];\n        return (file.ipfsHash, file.fileName, file.encryptedKey, file.timestamp, file.isPublic);\n    }\n\n    function getPublicFile(address _user, uint256 _id) \n        public view \n        returns (string memory, string memory) {\n        require(_id < fileCount[_user], \"ID does not exist\");\n        File memory file = files[_user][_id];\n        require(file.isPublic, \"File is not public\");\n        return (file.ipfsHash, file.fileName); // Key not shared for public files\n    }\n\n    function getFileKey(uint256 _id) public view returns (string memory) {\n        require(_id < fileCount[msg.sender], \"ID does not exist\");\n        return files[msg.sender][_id].encryptedKey;\n    }\n\n    function getFileCount() public view returns (uint256) {\n        return fileCount[msg.sender];\n    }\n\n    function deleteFile(uint256 _id) public whenNotPaused {\n        require(_id < fileCount[msg.sender], \"ID does not exist\");\n        delete files[msg.sender][_id];\n        emit FileDeleted(msg.sender, _id);\n    }\n\n    function addAllowedUser(address _user) public onlyOwner {\n        allowedUsers[_user] = true;\n        emit UserStatusChanged(_user, true);\n    }\n\n    function removeAllowedUser(address _user) public onlyOwner {\n        allowedUsers[_user] = false;\n        emit UserStatusChanged(_user, false);\n    }\n\n    function pause() public onlyOwner {\n        _pause();\n    }\n\n    function unpause() public onlyOwner {\n        _unpause();\n    }\n}\n",
  "sourcePath": "/home/alpha_beta/secure-storage/contracts/SecureStorage.sol",
  "compiler": {
    "name": "solc",
    "version": "0.8.20+commit.a1b79de6.Emscripten.clang"
  },
  "schemaVersion": "3.4.16",
  "updatedAt": "2025-05-15T06:29:24.489Z",
  "networkType": "ethereum",
  "devdoc": {
    "events": {
      "Paused(address)": {
        "details": "Emitted when the pause is triggered by `account`."
      },
      "Unpaused(address)": {
        "details": "Emitted when the pause is lifted by `account`."
      }
    },
    "kind": "dev",
    "methods": {
      "owner()": {
        "details": "Returns the address of the current owner."
      },
      "paused()": {
        "details": "Returns true if the contract is paused, and false otherwise."
      },
      "renounceOwnership()": {
        "details": "Leaves the contract without owner. It will not be possible to call `onlyOwner` functions. Can only be called by the current owner. NOTE: Renouncing ownership will leave the contract without an owner, thereby disabling any functionality that is only available to the owner."
      },
      "transferOwnership(address)": {
        "details": "Transfers ownership of the contract to a new account (`newOwner`). Can only be called by the current owner."
      }
    },
    "version": 1
  },
  "userdoc": {
    "kind": "user",
    "methods": {},
    "version": 1
  }
}